:020000000D28C9
:10000800CE00030E83129E000A089F004F08A0002E
:1000180017280E28C920A60083130C308400183036
:10002800C120830181280B1D1A281B2879280B1150
:100038002503031D20282128772801308506051867
:100048002628272877281508803ACF0080304F02C5
:10005800031D302808301402031833283428602878
:1000680083121408073C9800980A01309900003060
:100078009A0041280310990D9A0D980B3E280130DB
:100088009B001408073C013E4B2803109B0DFF3EC4
:10009800031D49281B0824059C009D011A081D06FC
:1000A800031D582819081C06031D5B285C285E28B8
:1000B80085147128851071280830831214061504D8
:1000C800031D672868286B288510051571280511F8
:1000D800FF309400FF309500A50101309407031804
:1000E800950A003095070630810020081F088A000D
:1000F8001E0E8300CE0E4E0E0900831605108510C5
:1001080005118B178B160B110B128B108112011214
:100118000117811101108114011183120514851032
:100128000511AA308312A1002108A4000130A10002
:100138002108A5000630A3001330A200AD30A100AD
:10014800A10BA428A20BA428A30BA428AB28031056
:100158008312A40C0130A1002108A5000630A300D9
:100168001330A200AD30A100A10BB828A20BB8280B
:10017800A30BB828BF2895280D2864008001840A9D
:0C0188000406031900340406C2280134E8
:08400000FF3FFF3FFF3FFF3FC0
:02400E00FA3F77
:00000001FF
